:100000000C943B000C94FE010C94FE010C94FE0138
:100010000C94FE010C94FE010C94FE010C94FE0164
:100020000C94FE010C94FE010C94FE010C94FE0154
:100030000C94FE010C94FE010C94FE010C94FE0144
:100040000C94FE010C94FE010C94FE010C94FE0134
:100050000C94FE01007400770004000077007A0021
:100060000403007A007D000406007D00800004097E
:1000700000600074800011241FBECFE5D8E0DEBF11
:10008000CDBFE4E5F0E040E017C0B591A591359112
:100090002591059107FD0CC095918591EF01F92FF0
:1000A000E82F05900D92A217B307D9F7FE0104C0FF
:1000B0001D92A217B307E1F7E537F40731F70E9465
:0A00C000E4000C946300F894FFCFF5
:1000CA0041305105E1F5613099F028F06230E9F0EC
:1000DA00633041F108954AB321E030E0B90102C02A
:1000EA00660F771F8A95E2F7CB01842B8ABB0895A6
:1000FA0047B321E030E0B90102C0660F771F8A9545
:10010A00E2F7CB01842B87BB089544B321E030E0AA
:10011A00B90102C0660F771F8A95E2F7CB01842BDB
:10012A0084BB089541B321E030E0B90102C0660FF3
:10013A00771F8A95E2F7CB01842B81BB0895613042
:10014A00A1F028F06230F9F0633059F108954AB30A
:10015A0021E030E0B90102C0660F771F8A95E2F705
:10016A00CB01809584238ABB089547B321E030E010
:10017A00B90102C0660F771F8A95E2F7CB01809515
:10018A00842387BB089544B321E030E0B90102C05B
:10019A00660F771F8A95E2F7CB018095842384BB8B
:1001AA00089541B321E030E0B90102C0660F771F1C
:0E01BA008A95E2F7CB018095842381BB0895DE
:1001C8000E94F50141E050E062E082E090E00E9488
:1001D800650041E050E063E083E090E00E94650044
:1001E80080E690E00E94CD016DE770E080E690E047
:1001F8000E94E701892B31F062E082E090E00E94E2
:100208007001EECF6AE770E080E690E00E94E701B7
:10021800892B31F062E082E090E00E943001E0CF6B
:1002280067E770E080E690E00E94E701892B31F0F3
:1002380063E083E090E00E947001D2CF64E770E051
:1002480080E690E00E94E701892B51F263E083E0A9
:0802580090E00E943001C4CFC8
:100260006130A1F028F06230F9F0633059F108955F
:100270004BB321E030E0B90102C0660F771F8A95C9
:10028000E2F7CB01809584238BBB089548B321E02E
:1002900030E0B90102C0660F771F8A95E2F7CB0103
:1002A0008095842388BB089545B321E030E0B901EF
:1002B00002C0660F771F8A95E2F7CB0180958423F1
:1002C00085BB089542B321E030E0B90102C0660F5A
:1002D000771F8A95E2F7CB018095842382BB08952E
:1002E000613099F028F06230E9F0633041F108950F
:1002F0004BB321E030E0B90102C0660F771F8A9549
:10030000E2F7CB01842B8BBB089548B321E030E0AA
:10031000B90102C0660F771F8A95E2F7CB01842BE3
:1003200088BB089545B321E030E0B90102C0660FF3
:10033000771F8A95E2F7CB01842B85BB089542B3E2
:1003400021E030E0B90102C0660F771F8A95E2F71D
:08035000CB01842B82BB089550
:10035800CF92DF92EF926B01E82EF6018491E7FCD1
:100368008081F901549147FD508185130BC0882382
:1003780041F08FEFC81AD80AE80A2F5F3F4F4F4F56
:10038800ECCF582F90E0851B9109EF90DF90CF902C
:020398000895C6
:10039A000F931F93CF93DF93EC010E94FA01888396
:1003AA00803241F021968E010E94FA0189938032AF
:1003BA00D1F701C08E01F8011082DF91CF911F9110
:0403CA000F910895F2
:1003CE009B0140E8BC0180E80E94AC0121E030E0D6
:0C03DE00892B11F020E030E0C9010895E7
:0A03EA00BE9A8DB183648DB90895A9
:0803F400779BFECF8FB1089545
:0403FC000C9400005D
:0304000043320084
:030403004F320075
:030406004331007F
:030409004F310070
:00000001FF
