:100000000C943B000C94EA000C94EA000C94EA0077
:100010000C94EA000C94EA000C94EA000C94EA00B8
:100020000C94EA000C94EA000C94EA000C94EA00A8
:100030000C94EA000C94EA000C94EA000C94EA0098
:100040000C94EA000C94EA000C94EA000C94EA0088
:100050000C94EA00007400770001D80077007A0061
:1000600001DB007A007D0001DE007D00800001E1FF
:1000700000600074800011241FBECFE5D8E0DEBF11
:10008000CDBFE4E5F0E040E017C0B591A591359112
:100090002591059107FD0CC095918591EF01F92FF0
:1000A000E82F05900D92A217B307D9F7FE0104C0FF
:1000B0001D92A217B307E1F7E537F40731F70E9465
:0A00C00065000C946300F894FFCF74
:1000CA000E94E1008FEF84BB8ABB81BBCFEF80E641
:1000DA0090E00E94B9006DE770E080E690E00E942F
:1000EA00D300892B11F0C5BBF2CF6AE770E080E636
:1000FA0090E00E94D300892B11F015BAE8CF67E788
:10010A0070E080E690E00E94D300892B11F0C2BB18
:10011A00DECF64E770E080E690E00E94D300892B8E
:06012A00B1F212BAD4CFBD
:10013000CF92DF92EF926B01E82EF6018491E7FCFB
:100140008081F901549147FD508185130BC08823AC
:1001500041F08FEFC81AD80AE80A2F5F3F4F4F4F80
:10016000ECCF582F90E0851B9109EF90DF90CF9056
:020170000895F0
:100172000F931F93CF93DF93EC010E94E6008883D5
:10018200803241F021968E010E94E60089938032EE
:10019200D1F701C08E01F8011082DF91CF911F913A
:0401A2000F9108951C
:1001A6009B0140E8BC0180E80E94980021E030E015
:0C01B600892B11F020E030E0C901089511
:0A01C200BE9A8DB183648DB90895D3
:0801CC00779BFECF8FB108956F
:0401D4000C94000087
:0301D800433200AF
:0301DB004F3200A0
:0301DE00433100AA
:0301E1004F31009B
:00000001FF
